:020000040800F2
:100000007005002001010008D52C00084D220008D1
:10001000D12C0008F90D0008E932000800000000AA
:100020000000000000000000000000009132000805
:10003000FD0D0008000000008D3200089532000818
:100040001B0100081B0100081B0100081B01000820
:100050001B0100081B0100081B0100081B01000810
:100060001B0100081B0100081B0100081B01000800
:100070001B0100081B0100081B0100081B010008F0
:100080001B0100081B0100081B0100081B010008E0
:100090001B0100081B0100081B0100081B010008D0
:1000A0001B0100081B0100081B0100081B010008C0
:1000B0001B0100081B0100081B0100081B010008B0
:1000C0001B0100081B0100081B0100081B010008A0
:1000D0001B0100081B0100081B0100081B01000890
:1000E0001B0100081B0100081B010008DFF80CD0F1
:1000F00000F0B2FC0048004759400008700500209D
:100100000648804706480047FEE7FEE7FEE7FEE7B1
:10011000FEE7FEE7FEE7FEE7FEE7FEE799320008AE
:10012000ED0000082DE9F0410024061B254671F181
:10013000000605DA01240027D0EB070067EB010178
:10014000161E73F1000605DA0027D2EB070201251F
:1001500067EB030300F042FB86460E4617469C46BB
:10016000AC4204D00025D0EB050E65EB010624B1AE
:100170000020D2EB000760EB030C704631463A4694
:100180006346BDE8F08130B504460020034600E038
:100190005B1C934203D2E05CCD5C401BF8D030BDC9
:1001A000F0B480EA0102D40F4200B2EB410F02D258
:1001B0000246084611464A0042D0C30DDDB2C1F3E3
:1001C000C752AD1A202D35DAC1F3160141F40002F1
:1001D00004B15242C5F1200602FA06F12A41104448
:1001E000B3EBD05F23D0C4B1012DA0EBC35009DC29
:1001F000F0BC4FF0004202EAC352DBB200F500004F
:1002000000F057BB400000F1807000EBC350A0F13C
:10021000807040EAD170490009E0490841EAC071A4
:10022000A0EBC35000F50000400800EBC350F0BC49
:1002300000F036BB6142012202EB4101001BF6E7F0
:10024000F0BC704781F00041AAE780F00040A7E7CA
:1002500080EA010210B502F00043400022D04A00BB
:100260001FD0010E01EB1261C0F35600C2F356021B
:1002700040F4000042F40002A0FB022000047F3999
:10028000140400D0401C50EA124001D44000491E22
:10029000C2B20C0604EBD010401C4008802A02D0E9
:1002A00003E0002010BD20F00100002900DA00204A
:1002B000184310BD30B480EA010202F0004530F06E
:1002C000004221F0004013D090B1C30DD40DC2F311
:1002D0001601C0F31600E41A41F4000140F40002D4
:1002E0007D34914201D3641C00E04900002C02DA05
:1002F00030BC002070474FF400000023914201D32E
:10030000891A034340084FEA4101F7D151B19142A4
:1003100002D14FF0004105E002D24FF0010101E0AF
:100320006FF0010103EBC450284430BC00F0B8BAB0
:100330002DE9FE4F804681EA0300C00F0C46009075
:1003400021F0004123F00045B8EB0200A94105D29D
:100350004046214690461C460B46024623F000408C
:10036000104347D0270DC7F30A00C3F30A51029088
:10037000401A019040286BDAC3F3130040F4801B4D
:100380000098924620B10023D2EB030A63EB0B0BDB
:1003900001985946C0F14002504600F050FA064616
:1003A0000D4650465946019A00F068FA10EB0800D5
:1003B0006141002487EA115284EAE7731A4340D06E
:1003C000009A62B3019A012A4FEA075215DC001B1A
:1003D00061EB02014FF0004202EA0752CDE9004210
:1003E000001C41F5801132462B4600F09FFA03B005
:1003F000BDE8F08F40462146F9E7001B61EB0201A2
:10040000001C41F5801300185B412018A2F500176D
:1004100047EB030140EAD570B6196D4111E06D0854
:100420004FEA360645EAC0754FEA0752001B61EBFA
:100430000201001C41F5801149084FEA3000001903
:10044000514132462B4603B0BDE8F04F00F05FBA91
:100450000098012240000023D0EB020263EBE0731E
:10046000009821464FEAE074B8EB000061EB04010C
:10047000E9E783F000435BE781F0004158E72DE9AD
:10048000FE4F81EA030404F0004421F0004100948F
:100490004FF0000B23F0004350EA01045ED052EA13
:1004A00003045BD0C3F30A54C1F30A552C44A4F2ED
:1004B000F3340194A0FB0254C1F3130141F4801101
:1004C000C3F3130343F4801301FB024400FB034E08
:1004D000840A970A44EA815447EA8357A4FB0768D1
:1004E00002958D0A05FB07854FEA932C04FB0C54FB
:1004F0002705029D4FEA065847EA1637B5EB08056F
:100500006EEB070C870E920E47EA811742EA8312C0
:10051000A7FB0201B6EB0B0164EB00042B0D43EAD1
:100520000C335E1844EB1C50DA465146E7FB0201DF
:10053000C5F313044FEA0B3343EA14534FEA043272
:10054000019C43EA0603A4F10C040294009CCDE94B
:1005500000B400F0EBF903B0BDE8F08F00200146D5
:10056000F9E72DE9F04D81EA030404F0004B21F096
:10057000004514464FF0000A23F0004150EA0502FE
:1005800020D054EA01021DD0C5F30A570246C5F334
:100590001303C1F31300C1F30A5640F4801543F46A
:1005A0008013A7EB0608101BD64608F2FD3873EB44
:1005B000050002D308F1010801E092185B41B8F18F
:1005C000000F03DA00200146BDE8F08D00204FF453
:1005D0008011064684460EE0171B73EB050705D312
:1005E000121B63EB050306434CEA010C49084FEA72
:1005F000300092185B4150EA0107EDD152EA030046
:1006000012D082EA040083EA0501084305D0101BDA
:10061000AB4106D20122002306E000224FF0004346
:1006200002E06FF0010253101AEB06004CEB085188
:1006300010EB0A0041EB0B01BDE8F04D00F067B98B
:10064000002801DBC0F10040002901DBC1F10041BD
:10065000814201D80120704700207047002801DB4B
:10066000C0F10040002901DBC1F10041814201D20B
:100670000120704700207047002801DBC0F10040D6
:10068000002901DBC1F10041814201D901207047FD
:1006900000207047002801DBC0F10040002901DB89
:1006A000C1F10041814201D1012070470020704713
:1006B000C10F80EAE0700844CA079623002100F0C9
:1006C000F8B896230022114600F0F3B80EB5C10F1A
:1006D00080EAE0700844CA07002140F233438DE805
:1006E0000E000A460B4600F021F903B000BD00F0F1
:1006F000004220F00040C10DC0F3160040F400009D
:100700007F2901DA00207047962903DCC1F19601A8
:10071000C84001E096398840002AF4D04042704732
:10072000C1F30A5210B5C1F3130140F2FF3341F493
:1007300080119A4201DA002010BD40F233439A4200
:10074000A2F2334203DC524200F088F810BD904020
:1007500010BD00F0004230F000400AD0C10D01F59C
:100760006071C0F3160042EA0151C208400711430C
:10077000704700200146704701F0004330B421F07B
:10078000004150EA010206D00A0DA2F56072C1F3E1
:100790001301002A02DC30BC00207047440F44EAF9
:1007A000C104C100E01830BC00EBC25000F078B8C2
:1007B00030B50B46014600202022012409E021FA31
:1007C00002F59D4205D303FA02F5491B04FA02F52E
:1007D0002844151EA2F10102F1DC30BD2DE9F05FC5
:1007E0000546002092469B468846064681464024A0
:1007F0001BE0284641464746224600F02FF8534664
:100800005A46C01A914110D311461846224600F0AC
:1008100016F82D1A67EB01084F46224601200021E9
:1008200000F00DF817EB00094E41201EA4F1010461
:10083000DFDC484631462A464346BDE8F09F202A81
:1008400004DB203A00FA02F1002070479140C2F127
:10085000200320FA03F3194390407047202A04DB59
:10086000203A21FA02F00021704721FA02F3D04029
:10087000C2F120029140084319467047202A06DB46
:10088000CB17203A41FA02F043EAE07306E041FA5E
:1008900002F3D040C2F1200291400843194670474C
:1008A0000029A8BF7047401C490008BF20F0010084
:1008B000704710B4B0FA80FC00FA0CF050EA010462
:1008C00004BF10BC704749B1CCF1200421FA04F4F4
:1008D00011FA0CF118BF012121430843A3EB0C01CD
:1008E000CB1D4FEA00614FEA102042BF002010BC30
:1008F000704700EBC35010440029A4BF10BC7047E0
:10090000401C490008BF20F0010010BC704710B522
:10091000141E73F1000408DA401C41F10001921822
:100920005B411A4301D120F0010010BD2DE9F04DCB
:1009300092469B4611B1B1FA81F202E0B0FA80F220
:1009400020329046FFF77BFF04460F4640EA0A003C
:1009500041EA0B0153465A46084313D0114653EA65
:10096000010019D0C8F140025046FFF777FF054655
:100970000E46504659464246FFF761FF084305D0F0
:10098000012004E020463946BDE8F08D00200543F3
:1009900046EAE0762C4337430A986305E40AA0EB65
:1009A00008000022FD0A44EA47540A3002D500201C
:1009B0000146E9E7010510196941DDE9084500191B
:1009C0006941BDE8F04DA2E770B521F00043034353
:1009D0000CD0C1F30A550024D5EB040564EB0403E5
:1009E000D617AD1AB34102DB0020014670BD2018B6
:1009F00041EB025170BDC1F30A52C1F3130140F241
:100A0000FF3341F480119A4202DA00200146704718
:100A100040F233439A42A2F2334202DC5242FFF7E1
:100A20001DBFFFF70CBF000030B5041E71F10004BC
:100A300004DB4FF00044404264EB0101141E73F1EB
:100A4000000405DB1C464FF00043524263EB0403F5
:100A5000994208BF904230BD1CB509480090094832
:100A600001900546009C06E0E06840F0010394E830
:100A7000070098471034AC42F6D3FFF73BFB000069
:100A8000E0860008008700082DE9F04D00231A4693
:100A90001B1A8A4103DB00200146BDE8F08DC1F33B
:100AA0000A52C1F3130141F480154FF0000BD10736
:100AB00002D100186D41521E0027044640F2FF117A
:100AC000384601EB620A3E468046024600204FF45B
:100AD0008011FFF7C3FEC2197141BB1846EB01003C
:100AE000B4EB030C75EB000C04D3E41A65EB0005C2
:100AF00017460E46241908F101006D41804634283E
:100B0000E3DDF91946EB0600091BA84103D24FF0BB
:100B1000FF32134601E0002213461BEB070046EBB1
:100B20000A51BDE8F04DFFF7F2BE00002DE9F04F8D
:100B300081B040F2A008C2F20008D8F80020B2F557
:100B4000FA334FEAE272A3FB03E562F1000A03FB0A
:100B50000A52B8F90E5003FB0A2BAEFB0597EA17B1
:100B60000EFB0272B8F90C700BFB0522A3FB0716F3
:100B7000FC1703FB04644FEA19250AFB074445EA06
:100B80000265240315EB0135B8F80A6044EA1151F7
:100B900041EB2221A5FB065701F5004101FB06753B
:100BA0006A1052EAE57167D0B8F91440B8F912102A
:100BB000AEFB04970097A3FB01764FEAE17C03FBB1
:100BC0000C63C0F580100AFB013100F0004646EAD4
:100BD0005006C007490441EAD731B0EB4740009BBB
:100BE00066EB0101E6170EFB0636B8F910300BFB79
:100BF0000466B0EB090040F6354C06EBC303A0FBDE
:100C00000C07994101FB0C71B8F91690EB17FFF72F
:100C100089FA420B42EAC142A2FB02374D13B8F9EE
:100C20001A6002FB0577A3FB06C402FB0572F717E7
:100C300003FB07434FEA5C6402FB0632B8F9183045
:100C40004FEA626EA0FB0376DD1700FB056644EAFF
:100C5000C21201FB0363FF0C47EA4337801841EBE4
:100C60000E01C01941EBD341000A40EA016000EBDC
:100C7000091001B0BDE8F08F002001B0BDE8F08F91
:100C800080B540F2A00CC2F2000CBCF80420C310E6
:100C9000C2EB2010BCF908E04043BCF90610000B81
:100CA000A3EB420300FB0EF05943801300EBE1215C
:100CB00001EB810080300012CCF8001080BD0000F4
:100CC00080B582B00DF10501F720032200F068F82D
:100CD0009DF806109DF805009DF80720090141EADE
:100CE000003040EA1210FFF721FF002102B080BD62
:100CF00080B582B00DF10501FA20032200F050F812
:100D00009DF806109DF805009DF80720090141EAAD
:100D1000003040EA1210FFF7B3FF02B080BD0000C0
:100D200040F26811C2F200010860704710B588B047
:100D300040F2D400C2F20000FFF7F2FF0DF106010D
:100D40008820182200F02CF8DDF8060040F2A404F8
:100D5000C2F20004DDF80A10DDF80E2020605020F9
:100D6000DDF81230DDF816C0DDF81AE08DF8060067
:100D7000B7206160A2608DF81F000DF11F01F42003
:100D80000122E360C4F810C0C4F814E000F01EF8BB
:100D90000DF10601F520012200F018F808B010BD91
:100DA00080B584B0944640F26812C2F20002126824
:100DB00003460A20009102901046EC211A460123B6
:100DC000CDF804C000F0FAF904B080BD80B584B05D
:100DD000944640F26812C2F20002126803460A20EA
:100DE000009102901046EC211A460123CDF804C070
:100DF00000F0D6FB04B080BDFEE7000070470000A5
:100E000070470000B0B5044600F028F9054640F2EE
:100E10000800C2F200000078611C18BF044400BF43
:100E200000F01CF9401BA042FAD3B0BD2DE9F04FF1
:100E300082B00E68002E00F0FF8040F20C4C40F2B1
:100E4000004E41F20042C4F2010CC4F2010EC4F2A1
:100E500001020427002401234FF0000A4FF000098B
:100E6000904208BF0327009742E000BF012704F02B
:100E70000C030F229A402BEA020207FA03F34FEA0F
:100E80009A051A4346F825204E68F203DEF8002042
:100E900054BF22EA080242EA0802CEF80020DEF837
:100EA0000420B30354BF22EA080242EA0802CEF843
:100EB0000420F302DEF8082054BF22EA080242EAC6
:100EC0000802B302CEF80820DCF800204FF001033E
:100ED00054BF22EA080242EA0802CCF800200E6859
:100EE0000AF1010A36FA0AF204F1040400F0A480BF
:100EF00003FA0AFB16EA0B08F1D04E684FF6FF72B0
:100F0000C1F21002964211DC122E55D8DFE806F02D
:100F1000340A444854545454545454545454545417
:100F2000544C5000D1F80C9046E000BF4FF6FF72D1
:100F3000C1F2210296420FDC0022C1F21102964258
:100F40001AD00022C1F21202964215D00022C1F23C
:100F50002102964210D02FE00022C1F222029642D6
:100F60000AD00022C1F23102964205D00022C1F21D
:100F70003202964220D100BF8A684AB1012A14BFCA
:100F8000C0F814B0C0F810B04FF0080914E000BF6A
:100F90004FF0040910E000BFCA6802F108090BE035
:100FA0004FF0000908E000BFCA6802F1040903E03D
:100FB000CA6802F10C0900BF22460646B8F5807FD8
:100FC00024BF203A043637680F25954027EA0505E7
:100FD00009FA02F22A433260CA79D2067FF57FAF5E
:100FE00041F21803C4F202031A68AEF57E7642F0AD
:100FF00001021A601A6802F001020192019A2AF0B5
:10100000030256F802B040F60002C4F20102904218
:1010100010D040F60042C4F2010290423FF426AFE5
:1010200041F20002C4F20102009F904208BF022771
:101030001DE700BF00271AE702B0BDE8F08F0000EF
:10104000C26814230A4208BF1023C1507047000031
:10105000002A08BF090401617047000040F26C10CB
:10106000C2F2000000687047002804BF01207047EA
:10107000F0B581B0044690F83D0028B9002084F80E
:101080003C00204600F07AFB242084F83D002068D4
:10109000016821F00101016000F028FD636848F259
:1010A000A16CC0F2010C40F60011C0F23D01634595
:1010B0003CBF48F28041C0F21E01884202D20120AA
:1010C00001B0F0BD4DF68361C4F21B31A0FB0112EB
:1010D0002168970CD1F804E04FF496762EF03F0586
:1010E00045EA92454D60774348F638160D6AC0F2DE
:1010F0004106A7FB067625F03F07634538BF960CEF
:10110000721C3A430A62CA6948F2A0664CF6FF773D
:10111000C0F20106B34222EA07020BD801385B0095
:10112000B0FBF3F001306FF31F30042898BF0420A8
:101130001BE000BFA768013857B119277B43B0FBFC
:10114000F3F001306FF31F3070B100F5804007E01D
:1011500003EB4303B0FBF3F001306FF31F3018B122
:1011600000F5004001E000BF01201043C86108689D
:10117000D4E9072320F0C0001043184308608868B2
:1011800048F2FF3204F10C0790438CCF1843104310
:10119000A6698860C86820F0FF0038433043C86003
:1011A000086840F00100086000202021206484F8D5
:1011B0003D10206384F83E0001B0F0BD2DE9F047FA
:1011C00084B01E4617460D460446FFF747FF94F8C5
:1011D0003D10202923D1804620688169890719D5CF
:1011E000FFF73CFFA0EB08001928F5D900202021CB
:1011F000206384F83D1084F83E00206C04F13C0923
:1012000040F0200020640220002189F8001004B082
:10121000BDE8F087A14619F83C1F012904D102203E
:1012200004B0BDE8F08700BF012289F80020036800
:10123000DDE90D1A0C9ADB0703D1036843F00103C3
:101240000360036823F400630360222084F83D00F8
:10125000402084F83E000020206462626185608D39
:10126000294620850020CFF6FF70E06220463A46EE
:101270003346CDE900A800F0EBFF18B1012004B01F
:10128000BDE8F087208D022810D0012824D0002846
:1012900038D100200390206841690391816903914E
:1012A0000399016841F40071016037E0206801682A
:1012B00041F400610160EFF3108072B600200390EA
:1012C000206841690391816903910399016821F4C0
:1012D0008061016062B621E02068016821F48061CC
:1012E0000160EFF3108072B600200390206841691E
:1012F0000391816903910399016841F400710160D0
:1013000062B60BE02068016841F480610160002151
:10131000039141690391806903900398208D00280F
:1013200000F00C810AF1010580B203281AD80228C6
:1013300046D0012870D1BAF1000F00F0CF802068AC
:10134000014651F8142F520600F1CC800868C006FF
:1013500000F11281FFF782FEA0EB08005045EED9A4
:10136000FFE000BFBAF1000F12D000BF20680146B5
:1013700051F8142F520610D40868C00600F1FC8002
:10138000FFF76CFEA0EB08005045EFD9E9E000BF85
:1013900020684169490640F1DD800069616A087092
:1013A000606A2268411C208D616201382085638D4E
:1013B000013B638553695B0740F1A080106993E0AE
:1013C00020684169490711D4002D00F07780BAF1F7
:1013D000000F00F0C480FFF741FEA0EB080050456D
:1013E00000F2BF80206840694007F4D5EFF3108019
:1013F00072B62068616A026842F400720260006995
:101400000870606A218D01306062481E2085608D01
:101410000138608562B64CE020684169490710D404
:10142000002D6FD0BAF1000F00F09980FFF716FE83
:10143000A0EB0800504500F29480206841694907FC
:10144000F4D5016821F480610160EFF3108072B679
:101450002068616A00690870606A218D0130013975
:10146000606221852068618D013961854169490784
:101470000ED4002D54D0BAF1000F70D0FFF7EEFD5E
:10148000A0EB080050456CD8206841694907F5D5A4
:10149000016841F4007101600069616A0870606A66
:1014A000218D01306062481E2085608D0138608585
:1014B00062B62068616A006916E000BF41694907A9
:1014C0003FF594AF416949075CBF41695FEA4171EB
:1014D0003FF58CAF41694907F0D587E7206841693E
:1014E000490637D50069616A0870606A218D01304C
:1014F0006062481E2085618D0139618501047FF499
:1015000013AF1BE0416949079BD4416949075CBFA0
:1015100041695FEA417194D441694907F2D590E786
:1015200041694907B4D4416949075CBF41695FEA31
:101530004171ADD441694907F2D5A9E7202084F86B
:101540003D00002084F83E00002189F8001004B01E
:10155000BDE8F08750F8141FC90601460CD4FFF708
:101560007DFD00202021206384F83D1084F83E009A
:10157000206C40F020000AE06FF0100008600020AE
:101580002021206384F83D1084F83E00206C206404
:101590000120002189F8001004B0BDE8F0870000A8
:1015A0002DE9F04383B0994616460F460446FFF7EF
:1015B00055FD94F83D1020291ED10546206881690B
:1015C000890715D5FFF74AFD401B1928F6D90020D9
:1015D0002021206384F83D1084F83E00216C41F006
:1015E0002001216484F83C00022003B0BDE8F083B0
:1015F00094F83C10012903D1022003B0BDE8F08328
:10160000012284F83C200368DDE90B180A9ADB0705
:1016100003D1036843F001030360036823F400630C
:101620000360212084F83D00402084F83E00002023
:10163000206462626185608D394620850020CFF686
:10164000FF70E062204632464B46CDE9008500F04F
:101650008BFF18B1012003B0BDE8F083208D002876
:1016600050D0206808F10106014651F8142F1206E7
:101670002CD49EB1B8F1000F5AD000BF08684005C5
:101680005ED4FFF7EBFC401B404556D8206801466E
:1016900051F8142F1206F1D518E000BF0A68520560
:1016A0004ED40A68120611D40A68520548D40A6852
:1016B00012060BD40A68520542D40A68120605D4F1
:1016C0000A6852053CD40A681206E7D5626A1146D8
:1016D00011F8013B0361238D6162591E2185678DDD
:1016E000013F678547697F070AD50F0408D0517805
:1016F0000161911C6162991E2185628D013A6285AA
:101700000904B1D1204641462A4601F05DF838BBB4
:101710002068016841F400710160202084F83D00D8
:10172000002084F83E0084F83C0003B0BDE8F0835C
:101730000868400504D4FFF791FC202004E000BFB6
:101740006FF480600860042000212022216384F867
:101750003D2084F83E10226C1043206484F83C1035
:10176000206C04287FF476AF2068016841F4007192
:101770000160012003B0BDE8F083000010B586B021
:1017800045F200410068C4F2000100228842049240
:1017900002D006B010BD00BF41F21804C4F202042A
:1017A000206840F008002060206800F008000190E8
:1017B0000198C0200290122003900320059001F5AB
:1017C000384002A9FFF732FB606840F40010606007
:1017D000606800F400100190019806B010BD000090
:1017E00040F2080040F26C11C2F20000C2F20001A7
:1017F00000780A68104408607047000080B542F223
:101800000000C4F20200016841F0100101600320F1
:1018100000F07AF8002000F005F800F027F800202A
:1018200080BD000070B540F20806C2F2000640F22A
:1018300074013278C2F200014FF47A730968B3FB85
:10184000F2F20446B1FBF2F1084600F077FB0F2CF0
:101850004FF0010508D838B94FF0FF30214600227B
:10186000002500F025F87460284670BD82B041F272
:101870001800C4F202000168022241F00101016077
:10188000016801F0010101910199416841F0805125
:101890004160406800F08050009000980420C4F23D
:1018A0000100016862F31A61016002B07047000034
:1018B00010B54EF60C5CCEF2000CDCF80030C3F331
:1018C000022E8EF00704042C28BF0424BEF103036B
:1018D0004FF0FF3E0EFA04F438BF0023A1439940B5
:1018E0000EFA03F39A43114300F00F0200F1604334
:1018F0000901043A03F564436244002848BF02F139
:101900000C03197010BD00004EF60C51CEF2000110
:101910000A684FF6FF031A4060F30A2242F0806023
:1019200040F0FD7008607047002804BF0120704738
:101930002DE9F04381B042F20008C4F202080446E7
:10194000D8F800000D4600F0070088420CD2D8F805
:10195000000020F007002843C8F80000D8F8000075
:1019600000F00700A8426CD1206841F20409810709
:10197000C4F2020917D5410705D5D9F8001041F482
:10198000E061C9F80010010705D5D9F8001041F44D
:101990006051C9F80010D9F80010A26821F0F001D8
:1019A0001143C9F80010C00742D1D8F8000000F078
:1019B0000700A8420CD9D8F8000020F007002843FF
:1019C000C8F80000D8F8000000F00700A84238D19D
:1019D0002068410707D5D9F80010E26821F4E061DA
:1019E0001143C9F80010000708D5D9F80000216993
:1019F00020F4605040EAC100C9F80000D9F8002086
:101A000002F00C00082841F20020C0F27A0051D107
:101A100047F6D013C2F38341C0F60003595CD203EA
:101A20003CD440F60010C0F23D00484342E000BF05
:101A3000606802280AD001282AD159F8041C8903B9
:101A400008D4012001B0BDE8F08300BF59F8041CA0
:101A50008901F6D5D9F8001021F003010843C9F82F
:101A60000000FFF7FBFA064641F28837D9F800007C
:101A7000616800F00C00B0EB810F96D0FFF7EEFA32
:101A8000801BB842F2D9032001B0BDE8F08300BF4B
:101A900059F8041C8907D4D5DCE700BFD9F8002029
:101AA00047F2A813C2F34042C0F600039A5C4843D1
:101AB000B0FBF2F0D9F8001047F2B012C1F30311F5
:101AC000C0F60002515C40F2740220FA01F140F2CB
:101AD0000C00C2F200000068C2F200021160FFF7C1
:101AE000A1FE002001B0BDE8F083000040F27400C8
:101AF00041F20401C2F20000C4F202010068096868
:101B000047F2C012C1F30221C0F60002515CC84086
:101B10007047000040F2740041F20401C2F200007C
:101B2000C4F202010068096847F2C012C1F3C22181
:101B3000C0F60002515CC84070470000002804BF96
:101B4000012070472DE9F04182B00446007841F24F
:101B50000006C007C4F202060CD0706800F00C004A
:101B6000042840F081803068800303D56068002835
:101B700000F04E81207880071BD5706810F00C0FA4
:101B800009D0706800F00C00082840F08B80706865
:101B9000C00300F187803068800703D520690128E1
:101BA00040F036813068616920F0F80040EAC100F9
:101BB00030602078000713D4207840072CD4E569E2
:101BC000002D00F02081706800F00C00082840F023
:101BD000AF80012D40F00C81012002B0BDE8F08102
:101BE000A069002800F08C800020C4F2422001216E
:101BF000C0F88014FFF732FA054600BF706A80070C
:101C000000F1BA80FFF72AFA401B0228F6D9032018
:101C100002B0BDE8F08100BFF0695FEAC00808D4F7
:101C2000F06940F08050F061F06900F08050009061
:101C3000009847F20007C4F200073868C0054DD489
:101C4000386840F480703860FFF708FA054600BF36
:101C50003868C00542D4FFF701FA401B6428F7D961
:101C6000032002B0BDE8F081706800F00C00082885
:101C700003D17068C0033FF576AF6068002800F0BC
:101C80000981B0F5A02F00F01D81B0F5803F00F074
:101C90001D81306820F480303060306820F480206E
:101CA00017E100BF2069002840F20000C4F2422082
:101CB00000F08C8001210160FFF7D0F9054600BFDC
:101CC000306880073FF56EAFFFF7C8F9401B022868
:101CD000F6D9032002B0BDE8F08100BFE06800281B
:101CE00000F09A80052800F0B180012800F0B28051
:101CF000306A20F001003062306A20F00400ACE06D
:101D00000020C4F242200021C0F88014FFF7A6F999
:101D1000054600BF706A80077FF54EAFFFF79EF95A
:101D2000401B0228F6D9032002B0BDE8F08100BFB5
:101D30000027C4F2422700203866FFF78FF9022DF2
:101D400005460DD13068800140F1D680FFF786F955
:101D5000401B02284FF00300F4D902B0BDE8F08127
:101D6000306880014FD5FFF779F9401B02284FF00A
:101D70000300F5D9F1E700BF40F27400C2F20000A1
:101D8000006844F6D351C1F26201A0FB0101480A88
:101D9000019000BF00BF0198411E002801913FF44F
:101DA0000BAF00BF0198411E002801913FF404AF22
:101DB00000BF0198411E002801913FF4FDAE00BF15
:101DC0000198411E00280191E4D1F5E6002101604F
:101DD000FFF744F9054600BF306880077FF5E9AE9C
:101DE000FFF73CF9401B02284FF00300F4D9B4E799
:101DF0007068216A00F480328A4209D1616A00F475
:101E00007010884204D1002002B0BDE8F08100BF0C
:101E1000012002B0BDE8F081306A20F0010030629C
:101E2000306A20F004003062FFF718F9054641F2ED
:101E3000883700BF306A800722D5FFF70FF9401BB3
:101E4000B8424FF00300F5D987E700BF306A40F091
:101E500004003062306A40F001003062FFF7FEF8A3
:101E6000054641F2883700BF306A800708D4FFF783
:101E7000F5F8401BB842F7D9032002B0BDE8F08165
:101E8000B8F1000F3FF59BAEF06920F08050F06193
:101E900095E600BF306820F480303060306820F470
:101EA00080203060FFF7DAF8054600BF3068800315
:101EB0007FF560AEFFF7D2F8401B64284FF00300B7
:101EC000F4D94AE7306840F480203060306840F44C
:101ED00080303060FFF7C2F8054600BF30688003ED
:101EE0003FF548AEFFF7BAF8401B6428F6D9032047
:101EF00002B0BDE8F08100BF206AB0F5803F05D197
:101F00007168A26821F40031114371607168626ADE
:101F100021F4741111430843706001203866FFF703
:101F20009DF80446306880013FF56DAFFFF796F8E5
:101F3000001B02284FF00300F4D90EE7411E0020D9
:101F4000B0EB116F1CBF012070474EF21002CEF2B1
:101F5000000251604EF62351CEF20001F0230B70C7
:101F60000721906011607047002804BF012070476E
:101F700010B5044690F8390028B9002084F83800DC
:101F8000204600F061F8242084F839002068D4E964
:101F90000212C36823F40053C360036923F440535F
:101FA0001A430261D4E904231143C268194341F280
:101FB0000C639A431143C1604169A26921F44071E5
:101FC000114343F60002C4F201029042416103D082
:101FD000FFF78CFD02E000BFFFF79CFDD4E9002372
:101FE000192148439900B0FBF1F048F21F5CC5F29B
:101FF000EB1CA0FB0C314FF69C734909C0F6FF7334
:1020000001FB0300322303EB0010A0FB0C03F020C4
:1020100000EA531000EB0110C3F343110844906031
:102020001069202120F490401061506920F02A00AE
:102030005061D06840F40050D0600020E06384F824
:10204000391084F83A1010BD70B586B040F600041F
:10205000C4F20104006804F5405100268842049649
:1020600002D006B070BD00BF41F21800C4F20200F9
:10207000016802AD41F480410160016801F48041D2
:1020800001910199016841F004010160006829464D
:1020900000F00400019001984FF4007002900220BB
:1020A0000390032005902046FEF7C0FE4FF48060A9
:1020B000CDE90206204629460496FEF7B7FE06B093
:1020C00070BD00002DE9F041044690F83900202849
:1020D0000ED10F4600294FF0010000F0B4801646E3
:1020E000002A08BFBDE8F08194F83800012803D128
:1020F0000220BDE8F08100BF012084F838000020F4
:10210000E06321201D4684F83900FEF7A7FFA6846E
:10211000E684E18C0646002960D005F1010805E05F
:1021200017F8011B4160E18C002958D0E08C013880
:10213000E0842068A1680268B1F5805F4FEA02611F
:102140001ED100290ED4B8F1000F2BD0002D69D07C
:10215000FEF784FF811B2068A94263D80168090645
:10216000F6D500BF39886FF35F21416021690029EE
:1021700014BF01370237E18C0029D7D12FE000BF0F
:102180000029CDD4B8F1000F1AD0002D4AD000BFDD
:10219000FEF764FF811B2068A94243D80168090645
:1021A000F6D5BDE701680906DCD4016809065CBF05
:1021B00001685FEA0161D5D401680906F2D5D1E76B
:1021C00001680906ACD4016809065CBF01685FEAD2
:1021D0000161A5D401680906F2D5A1E7206801686C
:1021E00049061AD4F5B1691C0ED10168490614D408
:1021F000016849065CBF01685FEA41610DD401686E
:102200004906F2D509E000BFFEF728FF811B2068D0
:10221000A94207D800684006F6D5202084F8390086
:1022200000200DE0C16821F4D071C160416921F046
:1022300001014161202084F8390084F83A0003202C
:10224000002184F83810BDE8F0810000FEE70000AE
:102250002DE9F04383B0044600680B9D0A9E076891
:10226000994647F4806707600768904647F4807393
:10227000036043690F46DA071DD1711C11D0002E8F
:1022800000F04A81FEF7EAFE401BB04200F24681B0
:1022900020684169C907F5D00DE000BF4169C90751
:1022A00009D14169C90706D14169C90704BF41691C
:1022B0005FEAC171F2D007F0FE0707614169890743
:1022C00038D44169721C29D0490529D4002E00F068
:1022D000378100BFFEF7C2FE401BB04200F23281E0
:1022E00020684169890725D441694905F2D517E07D
:1022F000416989071ED44169490511D4416989079B
:1023000018D4416949050BD44169890712D4416940
:10231000490505D4416989070CD441694905E7D5C8
:10232000016841F4007101606FF480614161042033
:1023300009E100BF00210291014651F8142F0292D9
:102340004A680292029A0A68120620D4002E00F00F
:10235000BB80721C53D10A68520500F1BD800A6827
:10236000120614D40A68520500F1B6800A681206F3
:102370000DD40A68520500F1AF800A68120606D42F
:102380000A68520500F1A8800A681206E3D5B9F17F
:10239000010F47D04FEA18210161014651F8142F6F
:1023A00012063FD4002E00F08F80721C2CD10A68D8
:1023B000520500F191800A68120633D40A6852056A
:1023C00000F18A800A6812062CD40A68520500F1CE
:1023D00083800A68120625D40A6852057CD40A68EC
:1023E0001206E4D51EE000BFFEF738FE401BB042E7
:1023F0006FD82068014651F8142F1206C7D4086818
:102400004005F1D568E000BF0868400564D4FEF7D8
:1024100025FE401BB0425CD82068014651F8142FBD
:102420001206F1D55FFA88F10161014651F8142FC7
:1024300012061BD4002E47D0721C40D10A685205E8
:102440004AD40A68120611D40A68520544D40A68AC
:1024500012060BD40A6852053ED40A68120605D447
:102460000A68520538D40A681206E7D501680022C6
:1024700041F48071016020464FF001113346009510
:1024800000F0F6F9002843D147F0010C276802213B
:10249000C0F20101204632462B46C7F810C003B0F7
:1024A000BDE8F04300F088BAFEF7D8FD401BB0420B
:1024B0000FD82068014651F8142F1206D6D40868A8
:1024C0004005F1D508E000BF0868400504D4FEF7D8
:1024D000C5FD202004E000BF6FF480600860042088
:1024E00000212022216384F83D2084F83E10226CD4
:1024F0001043206484F83C10206C042808D1206824
:10250000016841F400710160012003B0BDE8F0836F
:10251000012003B0BDE8F083FEF7A0FD00202021DC
:10252000206384F83D1084F83E00216C41F02001C6
:10253000216484F83C00012003B0BDE8F08300BFB3
:10254000FEF78CFD202000212022216384F83D200D
:1025500084F83E10226C1043206484F83C10012063
:1025600003B0BDE8F08300002DE9F04381B00446DC
:10257000006890460268099D42F4807202604269D8
:10258000089E9946D2070F461DD1711C11D0002E0E
:1025900000F0CE80FEF762FD401BB04200F2CA8020
:1025A00020684169C907F5D00DE000BF4169C9073E
:1025B00009D14169C90706D14169C90704BF416909
:1025C0005FEAC171F2D007F0FE010161416989073C
:1025D00038D44169721C29D0490529D4002E00F055
:1025E000DF8000BFFEF73AFD401BB04200F2DA8008
:1025F00020684169890725D441694905F2D517E06A
:10260000416989071ED44169490511D44169890787
:1026100018D4416949050BD44169890712D441692D
:10262000490505D4416989070CD441694905E7D5B5
:10263000016841F4007101606FF480614161042020
:10264000B1E000BF00210091014651F8142F009223
:102650004A680092009A0A6812061BD4002E77D0AE
:10266000721C4AD10A6852057AD40A68120611D43B
:102670000A68520574D40A6812060BD40A68520517
:102680006ED40A68120605D40A68520568D40A682E
:102690001206E7D5B9F1010F42D04FEA18210161C6
:1026A000014651F8142F12063AD4002E50D0721C55
:1026B00028D10A68520553D40A68120630D40A6831
:1026C00052054DD40A6812062AD40A68520547D426
:1026D0000A68120624D40A68520541D40A68120610
:1026E000E7D51DE0FEF7BAFC401BB04235D82068A4
:1026F000014651F8142F1206CCD408684005F1D5D4
:102700002EE000BF086840052AD4FEF7A7FC401B56
:10271000B04222D82068014651F8142F1206F1D594
:102720005FFA88F10161002001B0BDE8F08300BFCD
:10273000FEF794FC00202021206384F83D1084F8EB
:102740003E00216C41F02001216484F83C0023E02C
:102750000868400504D4FEF781FC202004E000BF97
:102760006FF480600860042000212022216384F837
:102770003D2084F83E10226C1043206484F83C1005
:10278000206C042808D12068016841F400710160C0
:10279000012001B0BDE8F083012001B0BDE8F08365
:1027A000FEF75CFC202000212022216384F83D20DC
:1027B00084F83E10226C1043206484F83C10012001
:1027C00001B0BDE8F083000070B50368044653F81B
:1027D000140F400737D40E46F1B1701C24D100BF4E
:1027E0001868400532D4186840072CD41868400592
:1027F0002CD41868400726D41868400526D41868D9
:10280000400720D41868400520D4186840074FF0CE
:10281000000048BF70BDE3E71868400516D4FEF716
:102820001DFC202016E000BF154600BF18684005BB
:102830000CD4FEF713FC401BB042F2D8236853F8C7
:10284000140F4007F2D5002070BD00BF6FF4806008
:102850001860042000212022216384F83D2084F8A0
:102860003E10226C10432064012084F83C1070BD9F
:102870002DE9F04105461446DDF8188001F47F008B
:102880002A681E46B0F5803F8FB23FD1506938406C
:10289000C01BB0FA80F04009A04277D1701C2BD049
:1028A000002E77D0FEF7DAFBA0EB0800B04273D819
:1028B000286840693840C01BB0FA80F04009A04247
:1028C000F0D063E050693840C01BB0FA80F0400996
:1028D000A0425BD150693840C01BB0FA80F040097B
:1028E000A04253D150693840C01BB0FA80F0400973
:1028F000A0424FF000005DD150693840C01BB0FAD3
:1029000080F04009A042DDD040E000BF906938402F
:10291000C01BB0FA80F04009A04237D1701C1DD016
:10292000C6B300BFFEF79AFBA0EB0800B04233D855
:10293000286880693840C01BB0FA80F04009A04286
:10294000F0D023E090693840C01BB0FA80F0400915
:10295000A0424FF0000018BFBDE8F08190693840F8
:10296000C01BB0FA80F04009A0420FD190693840F6
:10297000C01BB0FA80F04009A04207D190693840EE
:10298000C01BB0FA80F04009A042DBD00020BDE8B7
:10299000F08100BFFEF762FB00202021286385F84C
:1029A0003D1085F83E00296C41F02001296485F82E
:1029B0003C000120BDE8F081F0B581B0044600681C
:1029C0001D4643698FB203EA0701B94202D10020D4
:1029D00001B0F0BD4169164601321AD049050ED446
:1029E000A6B300BFFEF73AFB401BB04230D82068C8
:1029F00041693940B942EAD041694905F2D50168D7
:102A000041F4007101606FF480614161042020E0B5
:102A100041694905F3D441693940B942D7D0416988
:102A20004905ECD441693940B942D0D041694905E2
:102A3000E5D441693940B942C9D041694905DED47C
:102A400041693940B942E3D1C1E700BFFEF706FB57
:102A5000202000212022216384F83D2084F83E10AC
:102A6000226C1043206484F83C10012001B0F0BDBA
:102A70002DE9F04385B08946064606200DF10E018A
:102A8000CDE9001040F2D400904640F6FF74C2F247
:102A90000000D021432201230294FEF78FFB18B1DE
:102AA00005B0BDE8F08300BF9DF80E109DF80F2023
:102AB0009DF8103042EA012140F24802C2F20002C1
:102AC000D2E900759DF811403944318044EA032170
:102AD0009DF812309DF8137092682944A9F80010EF
:102AE00047EA03211144A8F8001005B0BDE8F083BF
:102AF00080B584B002200DF10E01CDE9001040F246
:102B0000D40040F6FF7CC2F20000D0214122012314
:102B1000CDF808C0FEF752FBBDF80E00C0BAFDF7B5
:102B2000D5FD44F20003C4F275030022FDF719FD40
:102B300047F2A40244F2D733C0F63D22C4F2420366
:102B4000FDF7F6FBFDF718FE0021C4F2C821FDF7E2
:102B50007FFBFDF7CCFD04B080BD000080B584B0E4
:102B600094460A4640F6FF710291410040F2D400BB
:102B70000093C2F200000123CDF804C0FEF71EFB53
:102B800004B080BD80B584B094460A4640F6FF711B
:102B90000291410040F2D4000093C2F200000123F0
:102BA000CDF804C0FEF7FCFC04B080BD2DE9F04177
:102BB00086B0002641F218000596C4F202000168B2
:102BC00040F6004441F0100101600168C4F20104C4
:102BD00001F01001019101990168002241F02001EA
:102BE000016001684FF0040801F020010191019992
:102BF000016841F004010160016801F004010191E4
:102C00000199016841F0080101600068042100F0A9
:102C10000800019001982046FEF71AFA0020C1F240
:102C2000310002AD0127CDE90306A4F580602946F5
:102C30000297FEF7FBF80220059020462946CDE9D1
:102C400002870496FEF7F2F806B0BDE8F0810000B6
:102C500080B540F2D40045F20041C2F20000C4F257
:102C6000000141F6802200234FF4804CC0F206029E
:102C700080E80E00C0E9033CC0E90533C0E9073332
:102C8000FEF7F2F9002808BF80BDBDE88040FEF7DE
:102C9000B7B8000080B540F2281043F60001C2F238
:102CA0000000C4F2010100234FF00C0C4FF4E1329C
:102CB00080E80E00C0E90333C0E905C3C361FFF734
:102CC00053F9002808BF80BDBDE88040FEF798B8E2
:102CD000FEE70000704700002DE9F04F85B040F29C
:102CE000D40400254FF480760127C2F200040DF1D0
:102CF000120B0DF113084FF0000900BF09F1B000ED
:102D00008DF8100004A8CDE90007204678210022A4
:102D100001230296FEF744FC0DF11100CDE90007F6
:102D200020467821002201238DF811500296FEF7EB
:102D300037FC10208DF81200204678210022012354
:102D4000CDE900B70296FEF72BFC4FF0000A00BF5A
:102D500020467821402201238DF81350CDE90087C9
:102D60000296FEF71DFC0AF101004FFA80FABAF153
:102D7000FF3FEDDCB9F1070F09F10109BED305B042
:102D8000BDE8F08F80B5C820FEF73CF8BDE8804074
:102D900000F0ACBA2DE9F04F89B047B2C0F3C010D3
:102DA000203A01EB400427EAE7711027A4F1500014
:102DB00047EA111601F00F05102BD7B240F0308111
:102DC00040F2D40B8DF818004FF0010806A8C2F2AB
:102DD000000B4FF4807CCDE9000858467821002292
:102DE0000123CDF808C00594FEF7DAFB0DF11900B8
:102DF000CDE9000858467821002201234FF4807461
:102E00008DF819600294FEF7CBFB0DF11A00CDE9A5
:102E1000000858467821002201238DF81A500294A8
:102E20004FF48074FEF7BCFB47F2F0313801C0F676
:102E30000001085C01EB07178DF81B0004950DF1EC
:102E40001B055846782140220123CDE90058029401
:102E5000FEF7A6FB787897F8029097F803A0039600
:102E60003E798DF81B005846782140220123CDE998
:102E700000580294FEF794FB584678214022012323
:102E80008DF81B90CDE900580294FEF789FB584657
:102E90007821402201238DF81BA0CDE9005802942F
:102EA000FEF77EFB58467821402201238DF81B60F7
:102EB000CDE900580294FEF773FB787978218DF8FC
:102EC0001B00584640220123CDE900580294FEF72A
:102ED00067FBB87978218DF81B0058464022012302
:102EE000CDE900580294FEF75BFBF87978218DF864
:102EF0001B00584640220123CDE900580294FEF7FA
:102F00004FFB059878214F388DF81C0007A8CDE9B4
:102F100000085846002201230294FEF741FB039863
:102F200078218DF81D000DF11D00CDE900085846EF
:102F3000002201230294FEF733FB049878218DF8D8
:102F40001E000DF11E00CDE90008584600220123A5
:102F50000294FEF725FB387A0DF11F058DF81F004E
:102F60005846782140220123CDE900580294FEF70B
:102F700017FB787A78218DF81F00584640220123EC
:102F8000CDE900580294FEF70BFBB87A78218DF852
:102F90001F00584640220123CDE900580294FEF755
:102FA000FFFAF87A78218DF81F0058464022012355
:102FB000CDE900580294FEF7F3FA387B78218DF8BA
:102FC0001F00584640220123CDE900580294FEF725
:102FD000E7FA787B78218DF81F00584640220123BC
:102FE000CDE900580294FEF7DBFAB87B78218DF822
:102FF0001F00584640220123CDE900580294FEF7F5
:10300000CFFAF87BCDE900588DF81F00584678219B
:10301000402201230294FEF7C3FA09B0BDE8F08F05
:1030200040F2D40B8DF820004FF0010908A8C2F23D
:10303000000B4FF4807ACDE9000958467821002230
:103040000123CDF808A0FEF7ABFA0DF12100CDE980
:10305000000958467821002201238DF82160CDF81F
:1030600008A0FEF79DFA0DF12200CDE900095846AF
:103070007821002201238DF82250CDF808A0FEF718
:103080008FFA47F2C81107EB4700C0F6000111F8AC
:10309000102001EB40058DF823200DF12307584641
:1030A000782140220123CDE90079CDF808A0FEF770
:1030B00077FA6878AE78EC7895F804808DF823007C
:1030C0005846782140220123CDE90079CDF808A0A7
:1030D000FEF766FA58467821402201238DF82360D6
:1030E000CDE90079CDF808A0FEF75AFA58467821C4
:1030F000402201238DF82340CDE90079CDF808A0C6
:10310000FEF74EFA58467821402201238DF823809D
:10311000CDE90079CDF808A0FEF742FA6879782168
:103120008DF82300584640220123CDE90079CDF8DF
:1031300008A0FEF735FA09B0BDE8F08F2DE9F04F91
:1031400085B0002B049103907CD00E981C46450856
:10315000981E009058421746591E4FF000085FFA1B
:1031600080FB42F2107900264FF0000A0291019292
:1031700012E000BF0126039940F0300205FB081160
:103180000E9BC8B20499D2B2FFF704FE08F1010801
:10319000A0450AF1010A55D06FEA0A00C0B25845AD
:1031A00002D101202AE000BF00996FEA0800A1EBDC
:1031B0000801C9B2032900EB040101D2012009E092
:1031C00001F0FC02002301200433DFB2974200FB30
:1031D00009F0F9D1019F11F003010FD0012903D1AA
:1031E00000EB8000400009E04FF47A72424302296C
:1031F0004FF0640108BF00FB01F21046B7FBF0F08E
:103200004CF6CD41CCF6CC41A0FB0112D10801EB2C
:103210008101002EA0EB4100ADD102994145AADD0C
:103220000028A7D10398049905FB08000E9BC0B2A3
:103230002022FFF7AFFD002608F10108A0450AF1A2
:10324000010AA9D105B0BDE8F08F00002DE9F041D9
:1032500015461278002A08BFBDE8F08198460E4650
:1032600007460024F8B2F1B2D2B24346FFF792FD0E
:103270000837F8B201347828E0B288BF02362A5CF9
:1032800088BF0027002AEDD1BDE8F081704700001B
:1032900070470000FEF7A4BA41F20000C4F2020039
:1032A0000168002241F0010101604168CFF6FF0290
:1032B0001140416001684FF6FF72CFF6F66211408F
:1032C0000160016821F480210160416821F4FE0160
:1032D00041604FF41F0181604EF60850CEF20000AD
:1032E0004FF0006101607047FEE70000F0B583B069
:1032F00040F2D40440F25407C2F200044FF4807547
:103300000126C2F200072046782100220123CDE9E0
:1033100000760295FEF744F9781CCDE900062046B8
:103320007821002201230295FEF73AF9B81CCDE975
:10333000000620467821002201230295FEF730F98D
:10334000F81CCDE9000620467821002201230295D1
:10335000FEF726F9381DCDE9000620467821002227
:1033600001230295FEF71CF9781DCDE900062046E1
:103370007821002201230295FEF712F9B81DCDE94C
:10338000000620467821002201230295FEF708F965
:10339000F81DCDE900062046782100220123029580
:1033A000FEF7FEF807F10800CDE900062046782177
:1033B000002201230295FEF7F3F807F10900CDE999
:1033C000000620467821002201230295FEF7E8F846
:1033D00007F10A00CDE900062046782100220123EA
:1033E0000295FEF7DDF807F10B00CDE90006204657
:1033F0007821002201230295FEF7D2F807F10C0094
:10340000CDE9000620467821002201230295FEF72F
:10341000C7F807F10D00CDE900062046782100220B
:1034200001230295FEF7BCF807F10E00CDE9000676
:1034300020467821002201230295FEF7B1F807F11A
:103440000F00CDE9000620467821002201230295D5
:10345000FEF7A6F807F11000CDE900062046782116
:10346000002201230295FEF79BF807F11100CDE938
:10347000000620467821002201230295FEF790F8ED
:1034800007F11200CDE90006204678210022012331
:103490000295FEF785F807F11300CDE900062046F6
:1034A0007821002201230295FEF77AF807F1140033
:1034B000CDE9000620467821002201230295FEF77F
:1034C0006FF807F11500CDE90006204678210022AB
:1034D00001230295FEF764F807F11600CDE9000616
:1034E00020467821002201230295FEF759F807F1C2
:1034F0001700CDE90006204678210022012302951D
:10350000FEF74EF807F11800CDE9000620467821B5
:10351000002201230295FEF743F807F11900CDE9D7
:10352000000620467821002201230295FEF738F894
:1035300007F11A00CDE90006204678210022012378
:103540000295FEF72DF803B0F0BD0000F0B587B08E
:1035500004464CF60220C0F6E3100DF10605CDF846
:103560000600682004212A4602F0D8FA14F040012F
:103570004FF0A3006FF03F018DF8060008BF6FF019
:103580005C016FF037026FF03D0308BF6FF05C0223
:1035900008BF6FF05C038DF8071014F4C0716FF072
:1035A0003B018DF808208DF8093008BF6FF05C01F1
:1035B0006FF033026FF0390308BF6FF05C0208BF91
:1035C0006FF05C038DF80A104AF2A3318DF80B20DE
:1035D000ADF80D108DF80F0040F6A7200A212A46FD
:1035E0008DF80C3002F09AFA2020A60708BF6FF081
:1035F00027008DF8060040F6B62001212A4602F089
:103600008DFAA0060CD4C720069048F6B000CCF284
:10361000C35005904AF6B820CAF6AA200BE000BFB6
:103620005D20069049F6B400C3F20D5005904AF6AD
:10363000B820C8F6B350049004AA4FF4976009214B
:1036400002F06CFA14F4C07F25D06FF04D016FF0DA
:10365000740214F4807008BF6FF04F0108BF6FF060
:103660007F026FF049036FF0640508BF6FF04B03F2
:10367000002808BF6FF06F058DF806108DF8072041
:103680000DF1060240F6A22004218DF808308DF8D5
:10369000095002F043FAE00708D1D8208DF806005F
:1036A0000DF106024FF40B60012150E0F8208DF877
:1036B00006000DF106024FF40B60012102F02EFA14
:1036C0000720FA2100F01AFA3F208DF8100004AA12
:1036D0004FF4A470012102F021FA00208DF81000AF
:1036E00004AA40F24F10012102F018FA4FF4A05042
:1036F000ADF8100004AA4FF4EF70022102F00EFAA8
:103700004FF4C840ADF8100004AA4FF4ED70022148
:1037100002F004FA48F60060C9F2F900049004AA25
:103720004FF4AE70042102F0F9F94FF40060ADF8E7
:10373000100004AA4FF4AD70022102F0EFF94FF42B
:103740000070ADF8100004AA4FF4AC70022102F032
:10375000E5F96FF02600002E58BF6FF027008DF8B6
:1037600006000DF1060240F23D70012102F0D6F98B
:10377000600752BF4FF08B304CF2C020CCF2C460D7
:10378000049004AA40F69820042102F0C7F901F041
:10379000D5F9E00652BF4FF0A33042F62000C3F641
:1037A0003000049004AA40F69E20042102F0B6F9ED
:1037B00001F0C4F940F2BC0744F00800C2F200076F
:1037C0006506B88001F0BAF9062000EAE57114F444
:1037D000C07F18BF063114F0140F18BF1031002E2F
:1037E00018BF04310020397007B0F0BD47F6E8116A
:1037F000C0F6000140F6F6304FF48062C82300F0B6
:10380000E3BF000010B584B004460DF1020000F0E3
:10381000D9FE40F2CC00C2F200000088BDF802C020
:1038200000F00302430754F822204FF00C0348BF76
:10383000524203EA50038106E358C0F3811148BFA6
:103840005B4254F82110C00548BF49424FEACC30D2
:1038500080FB02C480FB03E280FB01014FEA9C7302
:10386000800F43EA840C4FEA9E7340EA810EA00D5C
:103870008DF80400A00B8DF80500A0098DF8060056
:10388000900D8DF80800900B8DF8090090098DF8C7
:103890000A00880D8DF80C00880B8DF80D00880942
:1038A00043EA82038DF80E0001AA4FF425700C2123
:1038B0008DF807C08DF80B308DF80FE002F02EF96F
:1038C00004B010BD10B586B004464AF6BB70CDF604
:1038D000DF7005904FF2AA10CDF6DF7004904FF222
:1038E000FE20CCF2AB40C82C039017D8E0B2C82120
:1038F000B1FBF0F0002101388DF804108DF80500BF
:1039000001AA40F21620022102F008F930B903AAF8
:1039100040F6C1200C2102F001F918B14FF0FF3040
:1039200006B010BD40F2D000C2F2000004800020BA
:1039300006B010BDF0B581B040F2CC01C2F200017A
:103940000E880C2306F003014EF2093450F82110C2
:1039500003EA5603C0F2CA24720748BF4942C75857
:10396000C6F3811381FB041250F82350F0054FEA8F
:1039700091704FEA925148BF6D428DF80010910B43
:1039800040EA82008DF8011091098DF802108DF83F
:1039900003006A464FF47470042102F0BFF8E0B9E6
:1039A000B00648BF7F42A7FB0401FA1702FB0411CF
:1039B000800F8A0D40EA81008DF800208A0B89096A
:1039C0008DF801208DF802108DF803006A464FF43F
:1039D0007570042102F0A2F820B14FF0FF3001B061
:1039E000F0BD00BF85FB0401800F40EA8100010E9D
:1039F0008DF80010010C8DF80110010A8DF80210ED
:103A00008DF803006A464FF47670042102F086F8C0
:103A100001B0F0BDB0B582B0054647F2AD11C0F6B9
:103A20000001C5F3C10300F00300CC5C0A5C8DF813
:103A3000054047F2AA148DF80420C5F38112C0F6A0
:103A40000004895C205C8DF806108DF80000E05CB5
:103A5000A15C8DF801008DF8021001AA40F2264009
:103A6000032102F05BF850BB6A4640F22A40032172
:103A700002F054F818BB45F23660C0F276000190AF
:103A800044F22660C0F26600690700901CD4A806C4
:103A900022D4E80505D577208DF8060067208DF83B
:103AA000020001AA4FF48860032102F037F830B910
:103AB0006A4640F23140032102F030F8B0B14FF0D5
:103AC000FF3002B0B0BD00BF37208DF804002720C2
:103AD0008DF80000A806DCD557208DF8050047209A
:103AE0008DF80100E805D6D4DBE700BF40F2CC003A
:103AF000C2F200000580002002B0B0BDF0B583B076
:103B00000446B1F5C86F4FF0FF3057D814F00702E4
:103B100054D00846FCF7D5FD0021C4F24831FCF72B
:103B2000C9FB05460DF1070000F030FD9DF80700C8
:103B3000811EC00740EA5102072A4FF0FF303DD8EE
:103B40000026C4F240664FF08D41DFE802F0160512
:103B5000370B3737371100BF0026C4F2C0564FF07D
:103B60008C410AE00026C4F240564FF08B4104E03D
:103B70000026C4F2C0464FF08A412846FCF768FB95
:103B8000074628463146FCF763FBFCF7B0FD0646C6
:103B90003846FCF7ACFD010A8DF808108DF80900D5
:103BA000300A02A98D1C8DF80A00E0078DF80B6021
:103BB00006D1A00714D4600722D4002003B0F0BDC2
:103BC00002AA4FF4EA70022101F0A8FF38BB4FF4BB
:103BD000927002212A4601F0A1FF00BBE9E700BF75
:103BE00002AA4FF4EC70022101F098FFB8B94FF42B
:103BF000947002212A4601F091FF80B9DBE700BFF3
:103C000002AA4FF4EE70022101F088FF38B94FF498
:103C1000967002212A4601F081FF0028CDD04FF096
:103C2000FF3003B0F0BD000080B582B0019040F2DB
:103C30002810C2F2000001A901224FF47A73FEF7A6
:103C400041FA019802B080BD2DE9F04F85B040F2F5
:103C50001007C2F200070C4605460120D7E90313FE
:103C6000ADF808001878897C164602AB0222FEF7F0
:103C700089FF002840F0C280C820FDF7C3F800206B
:103C8000D7E903128DF808001078C97B02AB012236
:103C9000FEF778FF002840F0B180D7E9031002ABAF
:103CA000007849790122FEF76DFF002840F0A680D8
:103CB000D7E9031002AB0078897C0122FEF762FF8E
:103CC000002840F09B80D7E9031002AB0078C97D43
:103CD0000122FEF757FF002840F09080D7E903103B
:103CE00002AB007809790122FEF74CFF002840F072
:103CF00085800C20D7E903128DF808001078097927
:103D000002AB0122FEF73EFF002877D10F20FDF71E
:103D100079F8786BD7E90312407A89788DF8080032
:103D2000107802AB0122FEF72DFF002866D1786BD8
:103D3000D7E90312007A49788DF80800107802ABB1
:103D40000122FEF71FFF002858D1786BD7E9031234
:103D5000807A002E18BF40F0E0008DF8080010783F
:103D6000897902AB0122FEF70DFF002846D12EB162
:103D7000786BC07A60F01F0001E000BF1820D7E91F
:103D800003128DF808001078C97902AB0122FEF702
:103D9000F9FE98BB16B1C820FDF734F84020D7E9EA
:103DA00003128DF808001078097902AB0122FEF7A2
:103DB000E9FE18BB7820D7E903128DF808001078C7
:103DC000497902AB0122FEF7DDFEB8B93220FDF7DA
:103DD00019F80020D7E903128DF808001078497906
:103DE00002AB0122FEF7CEFE40B9D7E9031002ABC9
:103DF0000078897A0222FEF7B1FE28B14FF0FF3732
:103E0000384605B0BDE8F08FBDF808004AF6AB2192
:103E100000BA000C4843C0F3C7420021002AC5E99C
:103E20000011A960C4E900110192A16044D0C00C46
:103E300000260DF108095FFA80F8D7E903100C227B
:103E40000078C97A4B46FEF789FE0028D6D1BDF826
:103E50000800BDF80C20BDF80A1090FA80FC92FA18
:103E600082FED4E90030A26809BA00EB214002EBDF
:103E70002E4103EB2C43A160BDF81010C4E90030C3
:103E8000BDF81220BDF80E0091FA81FEA96892FAE1
:103E900082FCD5E90032013600BA01EB2C4AF1B2BE
:103EA00003EB204002EB2E4B4145C5E9000BC5F862
:103EB00008A0C2D304E000BFD5E9000BD5F808A0E4
:103EC000C117090441EA104100048322002300279E
:103ED000FCF728F9DDF8048000234246FCF722F9BC
:103EE00028604FEAEB70000440EA1B414FEA0B40A8
:103EF00083220023FCF716F942460023FCF712F94F
:103F000068604FEAEA70000440EA1A414FEA0A404A
:103F100083220023FCF706F942460023FCF702F94E
:103F2000A860D4E90006A568C117490141EAD0613B
:103F3000400142460023FCF7F5F82060F0174001ED
:103F400040EAD661700142460023FCF7EBF860605E
:103F5000E817400140EAD561680142460023FCF7BA
:103F6000E1F84FF480310028C4BF0021CFF6FF7183
:103F70000844A060384605B0BDE8F08F90F9001005
:103F800000290DDD002190F90320002A10DD002218
:103F900090F90630002B13DD0020114308437047D1
:103FA00018D490F9011000291EDD0121EBE700BFB4
:103FB00012D490F90420002A1EDD0822E8E700BF91
:103FC0000CD490F90730002B1EDD4020114308432C
:103FD000704700BF0421D6E72022D9E74FF4807054
:103FE00011430843704700BF18D490F9021000290C
:103FF0001EDD0221C7E700BF12D490F90520002A78
:104000001CDD1022C4E700BF0CD490F90800002882
:104010001ADD802011430843704700BF0521B2E735
:104020002822B5E74FF4A07011430843704700BF42
:104030004FF0060108BF0721A5E700BF4FF030028F
:1040400008BF3822A4E700BF4FF4C07008BF4FF488
:10405000E07011430843704790B0FDF7CFFB002498
:104060000120CDE90B44CDE9094406900A904FF4B4
:10407000E0104FF4803102250F9006A8CDE9071417
:10408000CDE90D51FDF75AFD0F20CDE901054FF4A3
:104090008060CDE9040401A802210394FDF744FCEB
:1040A000FEF784FDFEF7F6FDFEF7D2FD72A002F0EA
:1040B000F9FFFEF767FEFEF70FFE75A2282002212A
:1040C0001023FFF7C3F874A2082004211023FFF780
:1040D000BDF875A002F0E6FF00F06CF938B100BF42
:1040E000C820FCF78FFE00F065F90028F8D174A015
:1040F00002F0D8FFFEF7FCFCFCF7DAFA0021C4F26C
:10410000C821FCF7D7F8FCF724FB024673A00B4646
:1041100001F0B0FD40F27804C2F20004A51C261D97
:10412000204629463246FEF7A3FC40B9B4F90010F8
:10413000B4F90220B4F904306BA001F09BFDFCF748
:10414000F5FDFEF7C9FD48F21062C0F6000200203E
:10415000002110234FF0100AFFF778F848F2206290
:10416000C0F60002002002211023FFF76FF848F28A
:104170001762C0F60002002004211023FFF766F842
:1041800040F2700940F2000B48F22668C2F20009C2
:10419000C4F2590B04F10C07C0F6000824E000BF7C
:1041A000FCF7A6FDA060FCF78BFDA268C4E908013E
:1041B0001046FCF78BFA00225B46FCF7D2F9024668
:1041C0000B463846414601F065FD282002213A465B
:1041D0001023FFF73BF8D4F82120402004210623C8
:1041E000CDF800A0FEF7AAFFD9F8000050B140F6C4
:1041F0000040C4F201000421FCF722FF4FF4FA70E2
:10420000FCF700FE204629463246FEF731FC002826
:10421000C6D1B4F90000B4F902104043B4F9042047
:1042200001FB010002FB0200FCF750FA45F2555376
:104230004FF05532C3F6D57302F03EFA024648F20B
:104240000560C0F600000B46C4E9062101F012FD2E
:10425000D4E9060100230022C4F22403FCF781F90B
:10426000FCF75EFA0246302000210423CDF800A0BE
:10427000FEF764FF94E700BF4F4C4544206265673A
:10428000696E20746F20776F726B210D0000000043
:1042900053797374656D0000496E697469616C6966
:1042A0007A6174696F6E00004D505536303530209C
:1042B000626567696E20746F20776F726B210D00E5
:1042C0004D50552D3630353020496E697420537568
:1042D000636365737366756C6C790D0074656D70DE
:1042E000203A2025660D0A00696E697469616C20A8
:1042F0006E756D2069732078203A20256420202077
:10430000793A2564202020207A25640D0A000000D7
:10431000F0B581B040F21005C2F2000595F83010FA
:1043200021B10024204601B0F0BD00BFA97D39B302
:1043300000F0FE0739402E7FCC1B95F8200018BFF7
:104340004FF0FF34002F297708BF00281ED0687F68
:1043500078B90120D5E903128DF802001078C97BE5
:104360000DF102030122FEF70DFC10B99DF80200C9
:104370006877002FD6D000F0E1FB0028D2D02E774E
:104380004FF0FF34204601B0F0BD00BF0020D5E95A
:1043900003128DF803001078C97B0DF1030301228D
:1043A000FEF7F0FB0028BDD19DF80300687720469A
:1043B00001B0F0BD70B582B000F024F910B10A2050
:1043C00002B070BD4CA002F06DFE782001F030FB11
:1043D000000605D04FA002F065FE012002B070BDBE
:1043E00040F21004C2F2000494F8300050B164208E
:1043F00001F07CFA000623D04AA002F053FE03200D
:1044000002B070BDA07DB8B3617F257F00F0780653
:10441000267779B90120D4E903128DF807001078C6
:10442000C97B0DF107030122FEF7ACFB10B99DF823
:104430000700607700F082FBE0B125771CE000BF49
:10444000FFF7D4F9000605D03CA002F02BFE0420B3
:1044500002B070BD40F21000C2F20000FFF78EFD06
:10446000FFF7D8FA000611D039A002F01BFE052094
:1044700002B070BD782EBAD048F25E60C0F600007F
:1044800002F010FE022002B070BD00BF40F27310B7
:10449000FFF75CF8000605D032A002F003FE06200C
:1044A00002B070BD6420FFF70DFA000608D048F294
:1044B0002B60C0F6000002F0F5FD072002B070BDD1
:1044C00001F05EFB30B12CA001F0D4FB082002B05B
:1044D00070BD00BF012001F04BF9000608D048F282
:1044E0004660C0F6000002F0DDFD092002B070BD9C
:1044F000002002B070BD00BF6D70755F696E697499
:10450000207375636365737366756C6C7920210D18
:104510000000000073656E736F7273206661696CD2
:1045200065640D0073616D706C65205F7261746508
:10453000206661696C6564210D000000646D705F28
:104540006C6F6164206661696C6564210D00000018
:104550006F7269656E746174696F6E206661696CF3
:1045600065640D00646D705F656E61626C652066E8
:1045700061696C6564210D0073656C6620746573F8
:1045800074206661696C65642100000040F21001CE
:10459000C2F200014A7D032A84BF4FF0FF3070470A
:1045A00040F20243D200C1F20803D3400370C97F36
:1045B00029B140F60401C2F21001D140017000207F
:1045C0007047000040F21001C2F200014A7D032A48
:1045D00084BF4FF0FF30704706A333F81230C97F15
:1045E0000FF2180C3CF812200029038018BF02803B
:1045F0000020704700409C1F001000080020CE0FD4
:104600000008000410B582B040F21004C2F20004A9
:104610008020D4E903128DF801001078897C0DF117
:1046200001030122FEF7AEFAC8B96420FCF7EAFBE9
:104630000020D4E903128DF801001078897C0DF177
:1046400001030122FEF79EFA48B9D4E903100DF1E7
:1046500001030078897D0622FEF780FA20B14FF031
:10466000FF34204602B010BD9DF806209DF80200E0
:104670009DF80410042303EA820261F3410200F072
:104680000100111806D001292DD0022920D10020C7
:104690002AE000BFD4E903100DF101030078C978C6
:1046A0000122FEF75BFA0028D9D19DF8010000F045
:1046B0000F00042814D00028E9D148F26C60C0F63D
:1046C000000002F0EFFC4FF0FF34204602B010BDB6
:1046D00033A001F0CFFA4FF0FF34204602B010BDF6
:1046E00027A002F0DFFC0120E0774FF6FF70608327
:1046F000FF202077A0774FF0FF3060610020C4E9F1
:104700000800A062A085C4F82F0084F833001820A8
:104710008DF80700D4E903100122007889790DF1A2
:104720000703227684F82E20FEF72CFA002896D173
:104730009DF80700C0082075022000F053FF0028F4
:104740008DD12A2001F084F800287FF488AF322030
:1047500001F0CCF800287FF482AF0020FFF7D8FDED
:1047600000287FF47CAF002000F08AFF00287FF44F
:1047700076AF0020002401F05BF9204602B010BDA6
:1047800048616C662073656E7369746976697479C3
:10479000207061727420666F756E642E00000000D8
:1047A000556E737570706F7274656420736F667484
:1047B000776172652070726F6475637420726576BC
:1047C0002025642E0A0000002DE9F04F8BB004462E
:1047D00000294FF0FF3000F0928040F21009C2F241
:1047E0000009884699F83110002940F08880002C93
:1047F000CDE9013268D04FF0000ACDE903481FFA35
:104800008AF6A4EB060B99F81600BBF1100FA8BFAF
:104810004FF0100B002865D0D9F810005FFA8AF12C
:104820001FFA8BF342895F189AFA8AF197424FEA8E
:1048300011410593ADF82A1054D8D9F80C1000781E
:10484000097E02220DF12A03FEF79CF9002849D1C6
:10485000D9E9031008EB06040078497D5FFA8BF86C
:10486000424623464D46FEF78DF9D8BBA87DC8B316
:1048700028692B464289310A97428DF82A108DF813
:104880002BA02FD8D9680078097E02220DF12A03C7
:10489000FEF778F930BBD9E903100DF11A0500785D
:1048A000497D42462B46FEF759F9D8B9059A20466C
:1048B0002946FBF768FC28BBDA44039C1FFA8AF000
:1048C000DDF81080A0429AD30298D9E9031240BAC9
:1048D000ADF82A001078897E0DF12A030222FEF736
:1048E00051F928B14FF0FF300BB0BDE8F08F00BF99
:1048F000012089F831000198A9F8320000200BB09E
:10490000BDE8F08F6FF001000BB0BDE8F08F000044
:10491000282884BF4FF0FF30704770B584B040F254
:10492000100504460028C2F2000543D095F82F0078
:1049300001281FD0A87F95F82E103222002808BF2A
:1049400030228DF80A2039B16FF04D01002808BFE0
:104950006FF04F018DF80A10D5E903100DF10A032D
:104960000078097D01220126FEF70CF9002808BF16
:1049700085F82F602020012C8DF8070054D1A87DE8
:1049800000218DF8081090B1E87D062106288DF8E9
:104990000B100CD0D5E903100DF10B0300788978CA
:1049A0000122FEF7EFF810B99DF80B00E87507201B
:1049B0008BE000BF95F82F0000B3A87F95F82E106C
:1049C0000246002818BF012252008DF8092039B193
:1049D0006FF07D01002808BF6FF07F018DF809108E
:1049E000D5E903100DF109030078097D0122FEF7D6
:1049F000C9F8002804BF002085F82F004FF4E060BC
:104A0000D5E90312ADF807001078897C0DF1070392
:104A10000222FEF7B7F8002806BF002085F8200024
:104A20004FF0FF3004B070BD052C19D8A87D0121CE
:104A30008DF8081088B1E87D062106288DF80C1045
:104A40000BD0D5E9031003AB007889780122FEF77B
:104A500099F810B99DF80C00E875472035E000BFC3
:104A6000142C19D8A87D02218DF8081090B1E87D8A
:104A7000052105288DF80D100CD0D5E903100DF196
:104A80000D03007889780122FEF77CF810B99DF8B3
:104A90000D00E875872018E0A87D03218DF8081027
:104AA00090B1E87D042104288DF80E100CD0D5E9D2
:104AB00003100DF10E03007889780122FEF762F8E9
:104AC00010B99DF80E00E875C720D5E903128DF8DE
:104AD00008001078897C0DF107030222FEF752F8D6
:104AE00020B14FF0FF3004B070BD00BF95F830101A
:104AF0000820A875002000294FF00101287685F8CC
:104B000020107FF48FAF697F287719B1002004B09F
:104B100070BD00BF0120D5E903128DF80F00107899
:104B2000C97B0DF10F030122FEF72CF80028EDD10F
:104B30009DF80F006877002004B070BD10B582B0FA
:104B400040F21004C2F20004A07D00B30020D4E9BA
:104B500003128DF807001078C97B0DF107030122BD
:104B6000FEF710F898B9D4E903100DF107030078A7
:104B700049790122FEF706F848B9D4E903100DF18E
:104B80000703007809790122FDF7FCFF20B14FF0FF
:104B9000FF3002B010BD00BF94F83000002841D0B3
:104BA0000C20D4E903128DF80700107809790DF173
:104BB00007030122FDF7E6FF0028E8D13220FCF7C9
:104BC00021F9A07D0DF10703C0076FF01F0008BF9A
:104BD0006FF03F00D4E903128DF8070010780979CF
:104BE0000122FDF7CFFF0028D1D1607F0DF107032F
:104BF000002818BF01204000D4E903128DF80700F7
:104C00001078C97B0122FDF7BDFF0028BFD100202D
:104C1000D4E903128DF80700107849790DF10703E4
:104C200040E000BF0420D4E903128DF8070010789B
:104C300009790DF107030122FDF7A4FF0028A6D191
:104C4000A07DA17FC0074FF0600008BF4020002971
:104C500018BF4020D4E903128DF8070010780979B5
:104C60000DF107030122FDF78DFF00288FD13220BF
:104C7000FCF7C8F8607F0DF10703002818BF01207A
:104C8000D4E903128DF807001078C97B0122FDF7E3
:104C900079FF00287FF47BAFD4E9031004F11C03F3
:104CA000007849790122FDF76DFF00287FF46FAF8E
:104CB000002002B010BD00002DE9F04F99B040F285
:104CC000100AC2F2000A9AF830408946834614B1AD
:104CD000002000F04DFD9AF81400032816D847F67E
:104CE000E011C0F6000131F810109AF8150011918A
:104CF000032811D9002010909AF8170006281DD912
:104D00000020CDE90E00CDE90C0032E000219AF838
:104D1000150011910328EDD80FF6B8029AF81F304C
:104D200002EB80020FF69C01002B08BF01EB800212
:104D3000106810909AF817000628E1D800F07F005C
:104D4000411EB1FA81F149090F910621C14001F0DC
:104D500001010E910E21C14001F001010D911E21B2
:104D6000C14001F001010C913E2121FA00F000F058
:104D700001000B90BAF81A809AF816709AF81C6025
:104D8000584649460022FEF75FFF40B15846494663
:104D900000220025FEF758FF002840F05C8315A88C
:104DA00012A90122FEF750FF40B115A812A9012255
:104DB000FEF74AFF10B100254DE300BFDAF81000FE
:104DC00018AB00780D2104220A97CDE90864FDF79D
:104DD000C5FECDF81C8058B3D9F800001299401ACE
:104DE00048BF4042FBF764FC4FF05E51FBF730FADE
:104DF000044628460021FBF74DFC00284ED12046F2
:104E00002946FBF757FA0021CBF68071FBF7C8F96A
:104E100045F6294120F00040C3F60F61FBF710FC76
:104E200000280CBF4FF001084FF000084AE000BF17
:104E30009DF860009DF861309DF863509DF86260B8
:104E40001C2404EAD000C5F3011204EAD303C5F31D
:104E50008107CDF814B012EB000C03EB070104EA54
:104E6000D60B05F00308CDE90173069100F0D88058
:104E7000BCF1010400F0E880104314F00302A0F13B
:104E8000020000F0EB80012A40F0F2804FF6AD7591
:104E9000ACF10204C3F6B365F9E000BF49F69A111C
:104EA000C3F699612046FBF7D9FB43F2333105463F
:104EB000C3F673712046FBF7DFFB55EA000818BF05
:104EC0004FF00108D9F804001399401A48BF404236
:104ED000FBF7EEFB4FF05E51FBF7BAF905463046A3
:104EE0000021FBF7D7FBA8B928463146FBF7E2F9CA
:104EF0000021CBF68071FBF753F945F6294120F0EC
:104F00000040C3F60F61FBF79BFB002808BF08F1C8
:104F1000020815E043F23331C3F67371284608F1F5
:104F20000204FBF7A9FB49F69A110028C3F6996120
:104F3000284618BFA046FBF791FB002818BFA046E3
:104F4000D9F808001499401A48BF4042FBF7B0FB5B
:104F50004FF05E51FBF77CF9044638460021FBF721
:104F600099FBA8B920463946FBF7A4F90021CBF6F6
:104F70008071FBF715F945F6294120F00040C3F692
:104F80000F61FBF75DFB002808BF08F1040815E07E
:104F900043F23331C3F67371204608F10405FBF781
:104FA0006BFB49F69A110028C3F69961204618BF99
:104FB000A846FBF753FB002818BFA846DAF81000F4
:104FC0000A9F007818AB0D210322FDF7C7FD08B139
:104FD000072636E2DBF8000015999DF86020401A9C
:104FE00048BF40429DF861709DF8629002F01F0535
:104FF000FBF75EFB4FF05E51FBF72AF904468DB1DB
:105000006E1E27D016F00301A5F102002CD0012955
:1050100040F0808043F23331C4F2D111064687E07C
:1050200000254CE00021C4F220112046FBF716FBBE
:1050300000210546C4F2D2212046FBF71DFB55EAAC
:10504000000618BF01269EE041F27B45C3F6AE651F
:1050500035E000BF0021C4F2C81180E041F27B4579
:10506000C3F6AE6513E000BF0021C4F2C8115FE0D3
:1050700047F25E25ACF10404C3F6C065022A08BFFE
:10508000ACF1030404BF41F66365C3F6BA650328B7
:1050900015D345F61D26C3F6847600BF2846314653
:1050A000FBF7D6F83146FBF7D3F83146FBF7D0F8DB
:1050B0003146FBF7CDF8043C21060546EED1069AB1
:1050C000CDE9038BD8449AB1541E15D0DDE9011007
:1050D000084314F00301A0F1020015D0012940F0AB
:1050E0008D804FF6AD76941EC3F6B36693E000BF95
:1050F000DDF814B00026A8E041F27B46DDF814B0DC
:10510000C3F6AE66A1E000BF41F27B46C3F6AE66D1
:1051100081E000BF02294EF29A31A5F10406C4F2E3
:10512000E41108BFEE1E04BF4DF2BD21C4F2DA1136
:10513000032814D34EF25435C3F685750846294624
:10514000FBF786F82946FBF783F82946FBF780F83A
:105150002946FBF77DF8043E31060146EED1204694
:10516000FBF7A8F80021CBF68071FBF719F845F69C
:10517000294120F00040C3F60F61FBF761FA0028D7
:105180000CBF01260026DBF80400169907F01F0566
:10519000401A48BF4042FBF78BFA4FF05E51FBF7D5
:1051A00057F8044675B16F1E20D017F00301A5F122
:1051B00002001FD001296FD143F23331C4F2D11163
:1051C000074677E00021C4F2D2212046B51CFBF748
:1051D00053FA00210028C4F22011204618BF2E46A1
:1051E000FBF73CFA002818BF2E468DE00021C4F2E0
:1051F000C81176E00021C4F2C8115BE047F25E26D8
:10520000141FC3F6C066022908BFD41E04BF41F6AE
:105210006366C3F6BA66DDF814B0032815D345F605
:105220001D27C3F6847700BF30463946FBF710F8D8
:105230003946FBF70DF83946FBF70AF83946FBF714
:1052400007F8043C21060646EED1B8F1000F15D050
:10525000B8F1010414D0DDE90310084314F0030190
:10526000A0F1020012D0012940F08A804FF6AD77FC
:10527000A8F10204C3F6B36791E000BF0027ABE5D5
:1052800041F27B47C3F6AE67A6E500BF41F27B471C
:10529000C3F6AE6783E000BF02294EF29A31A5F152
:1052A0000407C4F2E41108BFEF1E04BF4DF2BD2194
:1052B000C4F2DA11032814D34EF25435C3F68575BF
:1052C00008462946FAF7C4FF2946FAF7C1FF2946DE
:1052D000FAF7BEFF2946FAF7BBFF043F390601463D
:1052E000EED12046FAF7E6FF0021CBF68071FAF7FF
:1052F00057FF45F6294120F00040C3F60F61FBF748
:105300009FF9002808BF0236DBF80800179909F05A
:105310001F05401A48BF4042FBF7CAF94FF05E51E3
:10532000FAF796FF04467DB16F1E21D017F00301F6
:10533000A5F1020020D001294AD143F23331C4F251
:10534000D111074652E000BF0021C4F2D22120460D
:10535000351DFBF791F900210028C4F220112046E9
:1053600018BF2E46FBF77AF9002818BF2E4667E0D3
:105370000021C4F2C81150E00021C4F2C81135E088
:1053800047F25E27A8F10404C3F6C067022908BFEC
:10539000A8F1030404BF41F66367C3F6BA670328A4
:1053A000FFF41AAD45F61D28C3F684783846414609
:1053B000FAF74EFF4146FAF74BFF4146FAF748FF2E
:1053C0004146FAF745FF043C21060746EED103E5C6
:1053D00002294EF29A31A5F10407C4F2E41108BF84
:1053E000EF1E04BF4DF2BD21C4F2DA11032814D31D
:1053F0004EF25435C3F6857508462946FAF728FF5C
:105400002946FAF725FF2946FAF722FF2946FAF737
:105410001FFF043F39060146EED12046FAF74AFF46
:105420000021CBF68071FAF7BBFE45F6294120F04A
:105430000040C3F60F61FBF703F9002808BF0436EC
:105440000A9FB6FA86F04509B8F1000F08BF023589
:10545000099CDDE907864FF6FF70AAF81A00FF20C5
:1054600011998AF81C004FF0FF30CAF8140001208F
:10547000B1F57A7F8AF8180006DAFA290AD0B1F570
:10548000FA7F1FD1082008E006D0B1F5FA6F19D1D4
:10549000182002E0002000E010208DF86000DAE91A
:1054A000031018AB007889790122FDF76BFB20B956
:1054B0009DF86000C0088AF814009AF816000028C9
:1054C00000F06E80109901F0FE000238C90741EA31
:1054D0005000072838D8DFE800F0050D37173737B8
:1054E000372100BF00208DF860009AF81510814226
:1054F0001CD129E008208DF8600001209AF81510D1
:10550000814213D120E000BF10208DF860000220FE
:105510009AF81510814209D116E000BF18208DF8C5
:10552000600003209AF8151081420DD0DAE90310CB
:1055300018AB0078C9790122FDF724FB20B99DF84A
:105540006000C0088AF815009AF8160040B30F985A
:1055500010B1012011E000BF0E9808B102200CE04C
:105560000D9808B1032008E00C9808B1042004E06D
:105570000B9800280CBF062005209AF817108DF80C
:10558000600081420CD0DAE9031018AB007889780A
:105590000122FDF7F7FA18B99DF860008AF81700A4
:1055A000404600F0A3F9384600F042FA3046FEF7D4
:1055B000AFFE14B1012000F0DBF8284619B0BDE8B9
:1055C000F08F00BF0200000004000000080000008F
:1055D000100000000400000008000000100000009F
:1055E0002000000010B582B040F21004C2F20004A6
:1055F000A17D002937D0811EC00740EA510107294B
:105600004FF0FF3039D8DFE801F0050D3815383894
:10561000381D00BF00208DF80700617D814218D140
:105620002AE000BF08208DF807000120617D81423B
:105630000FD121E010208DF807000220617D81420A
:1056400007D119E018208DF807000320617D814201
:1056500012D0D4E903100DF107030078C9790122B3
:10566000FDF790FA20B14FF0FF3002B010BD00BF3F
:105670009DF80700C0086075002002B010BD000052
:10568000B0B582B040F21005C2F20005A97F814298
:1056900002D1002002B0B0BD0446D5E903100DF1DF
:1056A0000703007809790122FDF758FA94B300281E
:1056B00046D19DF80700D5E9031200F0DF008DF810
:1056C0000700107809790DF107030122FDF75AFA56
:1056D000B0BB0320FBF796FB95F82E1095F82F2012
:1056E0006FF07D00002908BF02208DF807001AB175
:1056F00040F030008DF80700D5E903100DF10703E5
:105700000078097D0122FDF73DFAC8B9AC77002089
:1057100002B0B0BDA0B99DF80700A97D00F0DF0080
:1057200001F0010140EA4110D5E903128DF80700AC
:10573000107809790DF107030122FDF723FA18B15A
:105740004FF0FF3002B0B0BD0320FBF75BFB95F8D4
:105750002E0095F82F10024600281CBF01226FF082
:105760007F00D20100298DF80720C1D1C4E70000D5
:10577000B0B582B040F21004C2F2000494F83010C8
:1057800081425DD0D0B394F8310000285CD009B9D3
:10579000A07D78B10020D4E903128DF805001078BF
:1057A000C97B0DF105030122FDF7ECF910B99DF855
:1057B0000500607700200025FFF762FF608E00F093
:1057C00095F820698DF80450007801AB232101225F
:1057D0000125FDF7D7F90220D4E903128DF8060060
:1057E0001078C97B0DF10603012284F83050FDF7D3
:1057F000C9F918BB9DF8060060771FE009B9A07DC4
:1058000078B10020D4E903128DF807001078C97B25
:105810000DF107030122FDF7B5F910B99DF8070056
:105820006077207F21698DF80400087801AB23217F
:105830000122FDF7A7F9002084F83000FFF77EF978
:10584000002002B0B0BD00BF4FF0FF3002B0B0BDCD
:1058500010B582B040F21004C2F20004A17DD1B3B1
:10586000BC2807D30120E17D8DF80700814228D1B3
:1058700039E000BF622807D30220E17D8DF80700E0
:1058800081421ED12FE000BF2A2807D30320E17DEB
:105890008DF80700814214D125E000BF142807D3FA
:1058A0000420E17D8DF8070081420AD11BE000BF92
:1058B0000A2834BF06200520E17D8DF807008142CB
:1058C00011D0D4E903100DF1070300788978012283
:1058D000FDF758F920B14FF0FF3002B010BD00BF06
:1058E0009DF80700E075002002B010BD70B582B0D1
:1058F00040F21005C2F20005A97D044600294FF0D0
:10590000FF3000F0928095F83010002940F08D8033
:1059100095F82000E8B3601E80B2272804D8E0B2D2
:10592000FEF7F6FF80E000BF95F82F0000B3A87FD8
:1059300095F82E100246002818BF012252008DF85B
:10594000062039B16FF07D01002808BF6FF07F019C
:105950008DF80610D5E903100DF106030078097DD6
:105960000122FDF70FF9002804BF002085F82F0061
:105970004FF4E060D5E90312ADF804001078897C9B
:1059800001AB0222FDF7FEF8002804BF002085F8D5
:1059900020004FF47A76B4F57A7F28BF3446042C81
:1059A00098BF0424B6FBF4F0D5E9031201388DF852
:1059B0000300107849780DF103030122FDF7E2F8A6
:1059C00020B14FF0FF3002B070BD00BF9DF8030062
:1059D000AA7D411CB6FBF1F169832AB3012801D8E5
:1059E00001200FE0042801D802200BE00A2801D88A
:1059F000032007E0182801D8042003E031288CBFD9
:105A000006200520E97D8DF8070081420CD0D5E9FC
:105A100003100DF10703007889780122FDF7B2F831
:105A200010B99DF80700E875002002B070BD0000B5
:105A300070B582B0044610F0700F01D0012003E071
:105A4000002C0CBF4020002040F21005C2F20005DF
:105A50008DF80600D5E903100DF106030078897C66
:105A600001220126FDF78EF8F0B9042121EA141174
:105A700004F010029DF8060086EA1212A30658BF31
:105A800002311144220758BF38318DF80610D5E98C
:105A9000031200F0BF031078C97C2B760DF10603CA
:105AA0000122FDF76FF838B10020A8754FF0FF34E0
:105AB000204602B070BD00BF14F0F70F23D095F858
:105AC0002F0000B3A87F95F82E100246002818BFBB
:105AD000012252008DF8072039B16FF07D010028B6
